:100000000C9435000C9448030C9491030C945D00FF
:100010000C945D000C945D000C945D000C945D00EC
:100020000C945D000C945D000C945D000C945D00DC
:100030000C945D000C945D000C945D000C945D00CC
:100040000C945D000C945D000C945D000C945D00BC
:100050000C945D000C941B060C945D000C945D00E8
:100060000C945D000C945D006A0511241FBECFEF57
:10007000D4E0DEBFCDBF11E0A0E0B1E0E4ECFDE0F4
:1000800002C005900D92A831B107D9F711E0A8E19F
:10009000B1E001C01D92A437B107E1F710E0CAE654
:1000A000D0E004C02297FE010E94DC06C836D107CA
:1000B000C9F70E945F000C94E0060C9400000E94B7
:1000C000E7050E94C803FDCF0895FF920F931F9389
:1000D000CF93DF938C019B01DC0112966C91772703
:1000E00067FD709580E090E10E949006FB01621729
:1000F000730718F0C0E0D0E008C0CB019695879553
:1001000096958795E901C81BD90BCE01BF010E94C6
:100110007C06462FD8011396FC902F2D332727FD00
:100120003095862F992787FD9095019728173907D5
:1001300049F4CE01BF010E947C06F695E7958E1723
:100140009F0768F0F41659F0F80143830190F0819D
:10015000E02D0190F081E02DC801642F0995CDB705
:10016000DEB7E5E00C94CC060F93FC0113821482F9
:1001700061874287238704879AB161E070E09B0121
:1001800002C0220F331F4A95E2F7A901822F809502
:1001900089238AB98BB1482B4BB93AB1CB0103847F
:1001A00002C0880F991F0A94E2F7282F2095232375
:1001B0002AB92BB1822B8BB984B19B01018402C077
:1001C000220F331F0A94E2F7822B84B984B102C054
:1001D000660F771F0A95E2F7862B84B985B1862BC7
:1001E00085B985B1282B25B985B16095682365B996
:1001F0000F910895CF93DF93EC018D819E818A301A
:10020000910509F48BC18B30910594F482309105EE
:1002100011F18330910524F4892B09F473C068C16E
:100220008430910509F443C0089709F061C176C193
:100230008831910509F416C18931910524F40C9790
:1002400009F056C16BC18A31910509F464C04C971D
:1002500009F04EC1A3C09C818A81981708F01C82C6
:100260002C8188819981A0E0B0E0022E04C0B6956F
:10027000A795979587950A94D2F72F5F2C8380FFD7
:100280004DC145B121E030E0C901098402C0880FA9
:10029000991F0A94E2F78095842385B985B10C846F
:1002A00002C0220F331F0A94E2F7822B36C19C81D1
:1002B0008A81981708F01C822C8188819981A0E09E
:1002C000B0E0022E04C0B695A795979587950A943D
:1002D000D2F72F5F2C8380FF21C145B121E030E0B0
:1002E000C901098402C0880F991F0A94E2F74827C0
:1002F00045B985B10C8402C0220F331F0A94E2F77E
:1003000082270BC19C818A81981708F01C828C81FE
:100310008F5F8C83EDC09C818A81981708F01C82C6
:100320002C8188819981A0E0B0E0022E04C0B695AE
:10033000A795979587950A94D2F72F5F2C8380FF16
:10034000C6C025B141E050E0CA01098402C0880F4F
:10035000991F0A94E2F78095822385B925B1CA01D5
:100360000C8402C0880F991F0A94E2F7282B25B944
:10037000EF81F88525B1CA01018402C0880F991F59
:100380000A94E2F78095822385B985B1048402C07E
:10039000440F551F0A94E2F7842B62C09C818A8126
:1003A000981708F01C822C8188819981A0E0B0E028
:1003B000022E04C0B695A795979587950A94D2F713
:1003C0002F5F2C8380FF15C045B121E030E0C901CB
:1003D000098402C0880F991F0A94E2F7482745B99B
:1003E00085B10C8402C0220F331F0A94E2F78227E2
:1003F00085B983B190E0098402C0959587950A94E8
:10040000E2F7EF81F88580FD16C045B121E030E0CC
:10041000C901018402C0880F991F0A94E2F78095F0
:10042000842385B985B1048402C0220F331F0A9446
:10043000E2F7822B15C045B181E090E09C01018478
:1004400002C0220F331F0A94E2F7422B45B925B1AF
:10045000048402C0880F991F0A94E2F780958223D2
:1004600085B935C09C818A81981708F01C828C81DF
:100470008F5F8C8345B121E030E0C901098402C05F
:10048000880F991F0A94E2F7482B45B945B1C90175
:100490000C8402C0880F991F0A94E2F78095842388
:1004A00085B9EF81F88545B1C901018402C0880F83
:1004B000991F0A94E2F7482B45B985B1048402C01C
:1004C000220F331F0A94E2F72095282325B99C8137
:1004D0008A81981718F18D819E818F7E9E838D83EE
:1004E000EF81F8858581968180619683858316C02A
:1004F00045B181E090E09C01098402C0220F331FC6
:100500000A94E2F7422B45B925B10C8402C0880F4A
:10051000991F0A94E2F78095822385B9DF91CF91E4
:100520000895FC01858196818C30910509F455C0B0
:100530008D3091053CF48430910509F44EC00A9742
:10054000B1F508958A31910519F04C9781F5089518
:1005500045B121E030E0C901018402C0880F991F34
:100560000A94E2F7482B45B945B1C901048402C099
:10057000880F991F0A94E2F78095842385B9078034
:10058000F085E02D45B1C901018402C0880F991F93
:100590000A94E2F7482B45B985B1048402C0220FC2
:1005A000331F0A94E2F72095282325B9089545B111
:1005B00081E090E09C01018402C0220F331F0A9465
:1005C000E2F7422B45B925B1048402C0880F991F78
:1005D0000A94E2F78095822385B90895DC016F5F64
:1005E0001496ED91FC91159762831696ED91FC910E
:1005F000179762831696ED91FC9117978FEF83837F
:100600000895695FDC011496ED91FC911597738153
:100610007617ECF4671B20813181462F50E08281F0
:1006200090E0841B950BD90102C0B695A7958A95D9
:10063000E2F7CD01062E02C0220F331F0A94E2F723
:10064000822B932B91838083760F73830895671792
:10065000F4F4B72FB61B6B2F208131814B2F50E064
:10066000828190E0841B950BD90102C0AA0FBB1FA9
:100670008A95E2F7CD01062E02C0369527950A9499
:10068000E2F7822B932B91838083761B73830895EB
:100690001F920F920FB60F9211242F933F934F93F7
:1006A0008F939F9310921C0145B121E030E0C90166
:1006B0000090210102C0880F991F0A94E2F7482B8D
:1006C00045B945B1C9010090240102C0880F991FA6
:1006D0000A94E2F78095842385B91092290145B1E7
:1006E000C90100902E0102C0880F991F0A94E2F7F9
:1006F000482B45B985B10090310102C0220F331F4C
:100700000A94E2F72095282325B94A9BFECF9F91B2
:100710008F914F913F912F910F900FBE0F901F908F
:1007200018951F920F920FB60F9211242F933F939B
:100730004F935F936F937F938F939F93AF93BF93E9
:10074000EF93FF934B990AC088E191E00E94FA0071
:1007500085E291E00E94FA002D9A09C088E191E0BB
:100760000E94910285E291E00E9491022D98FF91F2
:10077000EF91BF91AF919F918F917F916F915F9119
:100780004F913F912F910F900FBE0F901F90189592
:100790000F931F9380915E0190915F010FEF1FE017
:1007A000B801681B790B88E391E00E946500809195
:1007B0005A0190915B01B801681B790B82E391E0CB
:1007C0000E9465008091620190916301B801681BED
:1007D000790B80E491E00E94650080916001909126
:1007E0006101B801681B790B8CE491E00E946500FF
:1007F00080915C0190915D01B801681B790B86E4E2
:1008000091E00E9465008091640190916501081B50
:10081000190B84E591E0B8010E9465001A9B03C0A2
:1008200040E050E007C040911D0150911E01407111
:100830005070486089B190E00090220102C0959507
:1008400087950A94E2F780FD02C042600BC089B12F
:1008500090E00090230102C0959587950A94E2F7F5
:1008600080FF446050931E0140931D011A9B03C0FA
:1008700020E030E007C020912A0130912B01207147
:100880003070286089B190E000902F0102C09595EA
:1008900087950A94E2F780FD02C022600BC089B1FF
:1008A00090E00090300102C0959587950A94E2F798
:1008B00080FF246030932B0120932A011A9913C0E2
:1008C000C901842B952B84FD0EC02F7E30932B0104
:1008D00020932A01E0912C01F0912D0185819681D0
:1008E0008061968385831F910F910895A0E0B0E009
:1008F000ECE7F4E00C94AC06EC01F62E8FEFF81662
:10090000A1F48A8121E030E040E050E0082E04C0EC
:10091000220F331F441F551F0A94D2F7209530959C
:10092000688179816223732323C0EEEFFE1679F08C
:10093000EE240F2D112707FD10950C0F1D1F5DE0F4
:10094000C52ED12CC00ED11EBF2CBA941BC08A81DB
:1009500021E030E040E050E0082E04C0220F331FB9
:10096000441F551F0A94D2F768817981622B732B3B
:10097000798368838F5F8A8310C0CE016B2D0E94BC
:100980007604E394F6018081E816BCF3F8018381D4
:10099000882319F0FEEFFF0EB1CFCDB7DEB7E9E047
:1009A0000C94C806A7E1B0E0E8EDF4E00C94A506CD
:1009B000DC0114968D909C901597772767FD7095B4
:1009C0006F5F7F4FF401C280C61A6C8340E0E4E0A1
:1009D0006E2E712C6C0E7D1E7EE0A72EB12CAC0EFF
:1009E000BD1E65E0462E512C4C0E5D1EEC2CFF24E6
:1009F000E7FCF094E42FFF27E7FDF0956301CE0EAE
:100A0000DF1ED6012C91332727FD309585010E0F6F
:100A10001F1FC701B9010E949006D8016C93E40D15
:100A2000F51DC701B9010E9490068083F601C080C0
:100A30004F5F242F332727FD3095F301E20FF31F7B
:100A4000808182309CF6A20EB31ED501CC921B820F
:100A50001A821982CE010196642F0E947604698160
:100A60007A81F4018381E281482F552747FD509513
:100A70001816A4F49B01042E02C0369527950A94FB
:100A8000E2F78E2F90E0841B950BAB0102C0440F60
:100A9000551F8A95E2F7422B532B15C088279927BB
:100AA000841B950B9B0102C0220F331F8A95E2F72E
:100AB0004E0F511DDB0102C0B695A7954A95E2F78E
:100AC000AD01422B532BF401518340836796E0E143
:100AD0000C94C106CF92DF92EF92FF920F93A8E1A0
:100AE000EA2EA1E0FA2EC70160E044E025E004E030
:100AF0000E94B400F5E2CF2EF1E0DF2EC60161E0E6
:100B000046E027E003E00E94B400E4E0F1E0F09367
:100B10003301E0933201F0923701E0923601809187
:100B20001A01809334013FEF3093350160E171E0A9
:100B30007093390160933801F0923D01E0923C01DD
:100B400082E391E090933F0180933E0120E1209366
:100B50003A0130933B0146E151E05093410140930B
:100B60004001F0924501E092440120934201F0934C
:100B70004701E0934601D0924B01C0924A01809117
:100B80002701809348013093490170934D01609390
:100B90004C01D0925101C092500186E491E09093B3
:100BA00053018093520120934E0130934F01509393
:100BB000550140935401D0925901C092580120939D
:100BC00056010F91FF90EF90DF90CF900895F89429
:100BD00086E08093690083E08DBB53985B9A5298BE
:100BE0005A9A0E94040622982A9A259A85E291E050
:100BF0009093200180931F0188E191E090932D0153
:100C000080932C0178940895EAE7F0E08081876072
:100C10008083ACE7B0E08C9180648C9380818062AB
:100C200080838081806880838081806480838081EC
:100C30008860808308951F920F920FB60F9211243F
:100C40002F933F934F935F938F939F93AF93BF9354
:100C5000EF93FF9340917C004770E0917301F0E0C7
:100C60002091780050917900EE0FFF1FEA59FE4F56
:100C7000952F80E030E0822B932B20813181820FF1
:100C8000931F91838083409373014F5F4630F9F443
:100C9000809172018F5F809372018430B9F4109259
:100CA0007201A6E6B1E020E030E08D919C911197B1
:100CB000F901EE0FFF1FE65AFE4F918380831D92CC
:100CC0001D922F5F3F4F2630310579F740E080912C
:100CD0007C00887F482B40937C00FF91EF91BF916F
:100CE000AF919F918F915F914F913F912F910F9075
:100CF0000FBE0F901F901895AA1BBB1B51E107C098
:100D0000AA1FBB1FA617B70710F0A61BB70B881F9B
:100D1000991F5A95A9F780959095BC01CD0108952A
:100D200097FB092E07260AD077FD04D0E5DF06D011
:100D300000201AF4709561957F4F0895F6F790950D
:100D400081959F4F08952F923F924F925F926F929D
:100D50007F928F929F92AF92BF92CF92DF92EF924B
:100D6000FF920F931F93CF93DF93CDB7DEB7CA1BCC
:100D7000DB0B0FB6F894DEBF0FBECDBF09942A88F7
:100D8000398848885F846E847D848C849B84AA849F
:100D9000B984C884DF80EE80FD800C811B81AA812C
:100DA000B981CE0FD11D0FB6F894DEBF0FBECDBFF7
:100DB000ED010895EE0FFF1F0590F491E02D0994C9
:040DC000F894FFCFD5
:100DC40000000000D20400000000640000000000E5
:080DD400EE0200000000010323
:00000001FF
