:100000000C9435000C9467030C94B0030C945D00C1
:100010000C945D000C945D000C945D000C945D00EC
:100020000C945D000C945D000C945D000C945D00DC
:100030000C945D000C945D000C945D000C945D00CC
:100040000C945D000C945D000C945D000C945D00BC
:100050000C945D000C947B000C945D000C945D008E
:100060000C945D000C945D00C10511241FBECFEF00
:10007000D4E0DEBFCDBF11E0A0E0B1E0E4E7FCE0FA
:1000800002C005900D92A231B107D9F711E0A2E1AB
:10009000B1E001C01D92AC36B107E1F710E0CAE64D
:1000A000D0E004C02297FE010E943406C836D10772
:1000B000C9F70E945F000C9438060C9400000E945F
:1000C000E7030E946E05FDCFEAE7F0E080818760DC
:1000D0008083ACE7B0E08C9180648C9380818062F7
:1000E0008083808180688083808180648083808138
:1000F0008860808308951F920F920FB60F9211248B
:100100002F933F934F935F938F939F93AF93BF939F
:10011000EF93FF9340917C004770E0916B01F0E01A
:100120002091780050917900EE0FFF1FE25AFE4FA8
:10013000952F80E030E0822B932B20813181820F3C
:10014000931F9183808340936B014F5F4630F9F496
:1001500080916A018F5F80936A018430B9F41092B4
:100160006A01AEE5B1E020E030E08D919C911197FD
:10017000F901EE0FFF1FEE5EFE4F918380831D920B
:100180001D922F5F3F4F2630310579F740E0809177
:100190007C00887F482B40937C00FF91EF91BF91BA
:1001A000AF919F918F915F914F913F912F910F90C0
:1001B0000FBE0F901F9018950F93FC0114828AE0D8
:1001C00091E096838583F287E18794878387F08B1C
:1001D000E78784E091E0928B818BF68BE58B648FCF
:1001E000458F268F078F9AB161E070E09B0102C0B6
:1001F000220F331F4A95E2F7A901822F80958923A8
:100200008AB98BB1482B4BB93AB1CB01068C02C0ED
:10021000880F991F0A94E2F7282F209523232AB9E3
:100220002BB1822B8BB984B19B01048C02C0220FAD
:10023000331F0A94E2F7822B84B984B102C0660F9F
:10024000771F0A95E2F7862B84B985B1862B85B98D
:1002500085B1282B25B985B16095682365B981E002
:10026000838F0F910895CF93DF93EC018F89988D41
:100270008A30910509F48BC18B30910594F482305A
:10028000910511F18330910524F4892B09F473C091
:1002900068C18430910509F443C0089709F061C131
:1002A00076C18831910509F416C18931910524F48C
:1002B0000C9709F056C16BC18A31910509F464C0ED
:1002C0004C9709F04EC1A3C09C818A81981708F011
:1002D0001C822C8188819981A0E0B0E0022E04C0AC
:1002E000B695A795979587950A94D2F72F5F2C839B
:1002F00080FF4DC145B121E030E0C9010C8C02C046
:10030000880F991F0A94E2F78095842385B985B1F7
:100310000F8C02C0220F331F0A94E2F7822B36C1E2
:100320009C818A81981708F01C822C818881998190
:10033000A0E0B0E0022E04C0B695A79597958795EA
:100340000A94D2F72F5F2C8380FF21C145B121E0B1
:1003500030E0C9010C8C02C0880F991F0A94E2F7A3
:10036000482745B985B10F8C02C0220F331F0A946C
:10037000E2F782270BC19C818A81981708F01C82C2
:100380008C818F5F8C83EDC09C818A81981708F0E7
:100390001C822C8188819981A0E0B0E0022E04C0EB
:1003A000B695A795979587950A94D2F72F5F2C83DA
:1003B00080FFC6C025B141E050E0CA010C8C02C0EC
:1003C000880F991F0A94E2F78095822385B925B199
:1003D000CA010F8C02C0880F991F0A94E2F7282BDC
:1003E00025B9E98DFA8D25B1CA01048C02C0880FA8
:1003F000991F0A94E2F78095822385B985B1078C0D
:1004000002C0440F551F0A94E2F7842B62C09C81FE
:100410008A81981708F01C822C8188819981A0E03C
:10042000B0E0022E04C0B695A795979587950A94DB
:10043000D2F72F5F2C8380FF15C045B121E030E05B
:10044000C9010C8C02C0880F991F0A94E2F7482753
:1004500045B985B10F8C02C0220F331F0A94E2F711
:10046000822785B983B190E00C8C02C09595879561
:100470000A94E2F7E98DFA8D80FD16C045B121E0BE
:1004800030E0C901048C02C0880F991F0A94E2F77A
:100490008095842385B985B1078C02C0220F331F54
:1004A0000A94E2F7822B15C045B181E090E09C01EF
:1004B000048C02C0220F331F0A94E2F7422B45B985
:1004C00025B1078C02C0880F991F0A94E2F7809526
:1004D000822385B935C09C818A81981708F01C82D7
:1004E0008C818F5F8C8345B121E030E0C9010C8C99
:1004F00002C0880F991F0A94E2F7482B45B945B10D
:10050000C9010F8C02C0880F991F0A94E2F78095E9
:10051000842385B9E98DFA8D45B1C901048C02C0E7
:10052000880F991F0A94E2F7482B45B985B1078CCB
:1005300002C0220F331F0A94E2F72095282325B921
:100540009C818A81981718F18F89988D8F7E988F5A
:100550008F8BE98DFA8D8789908D8061908F878B45
:1005600016C045B181E090E09C010C8C02C0220FC6
:10057000331F0A94E2F7422B45B925B10F8C02C014
:10058000880F991F0A94E2F78095822385B9DF913D
:10059000CF910895FC018789908D8C30910509F4E5
:1005A00055C08D3091053CF48430910509F44EC05E
:1005B0000A97B1F508958A31910519F04C9781F5A4
:1005C000089545B121E030E0C901048C02C0880FD4
:1005D000991F0A94E2F7482B45B945B1C901078C28
:1005E00002C0880F991F0A94E2F78095842385B989
:1005F000018CF28DE02D45B1C901048C02C0880F39
:10060000991F0A94E2F7482B45B985B1078C02C0BF
:10061000220F331F0A94E2F72095282325B9089565
:1006200045B181E090E09C01048C02C0220F331F91
:100630000A94E2F7422B45B925B1078C02C0880F16
:10064000991F0A94E2F78095822385B90895DC0109
:100650001496ED91FC91159781E0838F08950F9387
:100660001F93CF93DF93072FFC01C481D5811A819B
:10067000E12FF0E0872F992787FD90952B81332775
:1006800027FD3095821B930BBF010E94D405482F94
:100690008C81242F332727FD3095B901680F711DF8
:1006A000E617F7071CF48C81811B09C08C81280F89
:1006B000311D37FF03C08C81810F01C08C81840FF5
:1006C0008C830B83DF91CF911F910F9108951F921F
:1006D0000F920FB60F9211242F933F934F938F9346
:1006E0009F931092220145B121E030E0C9010090B2
:1006F0003A0102C0880F991F0A94E2F7482B45B9C6
:1007000045B1C90100903D0102C0880F991F0A94AC
:10071000E2F78095842385B91092420145B1C90161
:1007200000905A0102C0880F991F0A94E2F7482BE3
:1007300045B985B100905D0102C0220F331F0A94B4
:10074000E2F72095282325B94A9BFECF9F918F91F0
:100750004F913F912F910F900FBE0F901F901895C2
:100760001F920F920FB60F9211242F933F934F9326
:100770005F936F937F938F939F93AF93BF93EF9309
:10078000FF934B990AC08EE191E00E9433018EE302
:1007900091E00E9433012D9A09C08EE191E00E9400
:1007A000CA028EE391E00E94CA022D98FF91EF9158
:1007B000BF91AF919F918F917F916F915F914F9179
:1007C0003F912F910F900FBE0F901F901895F894A6
:1007D00086E08093690083E08DBB53985B9A5298C2
:1007E0005A9AEAE7F0E0808187608083ACE7B0E066
:1007F0008C9180648C93808180628083808180680A
:100800008083808180648083808188608083229857
:100810002A9A259A8EE391E09093380180933701CC
:100820008EE191E090935801809357017894089558
:10083000DC019B0112968D919C911397AB01481B93
:10084000590BCA0157FF03C0909581959F4F803483
:10085000910564F013963C932E931297ED91FC91C1
:1008600011970190F081E02DCD010995089508952B
:10087000A0E0B0E0EEE3F4E00C94F005EC01F62E1D
:100880008FEFF816A1F48A8121E030E040E050E0DB
:10089000082E04C0220F331F441F551F0A94D2F79D
:1008A00020953095688179816223732323C0EEEF10
:1008B000FE1679F0EE240F2D112707FD10950C0F71
:1008C0001D1FBDE0CB2ED12CC00ED11EBF2CBA9463
:1008D0001BC08A8121E030E040E050E0082E04C0D7
:1008E000220F331F441F551F0A94D2F76881798164
:1008F000622B732B798368838F5F8A8310C0CE014C
:100900006B2D0E943804E394F6018081E816BCF355
:10091000F8018381882319F0FEEFFF0EB1CFCDB728
:10092000DEB7E9E00C940C064F925F926F927F92D3
:100930008F929F92AF92BF92CF92DF92EF92FF92EF
:100940000F93DF93CF93CDB7DEB769970FB6F894C7
:10095000DEBF0FBECDBF5C01DC015B968C915B9767
:10096000882309F47CC017968D919C911897892F44
:10097000990F990B00E1081B202F30E01D968D91F7
:100980009C911E979595879595958795FC012E9F2F
:10099000C0012F9F900D3E9F900D112460E074E0E8
:1009A0000E94D405802F861B1A8219821B828823FD
:1009B00019F480E090E04EC0C02EC81A8C8340E04D
:1009C00024E0622E712C6C0E7D1E9EE0892E912CEF
:1009D0008C0E9D1E85E0482E512C4C0E5D1EEC2C7D
:1009E000FF24E7FCF094E42FFF27E7FDF095630177
:1009F000CE0EDF1ED6012C91332727FD3095C40182
:100A00008E0F9F1F998F888FC701B9010E94D4054F
:100A1000A88DB98D6C93E40DF51DC701B9010E9435
:100A2000D4058083F601C0804F5F242F332727FD34
:100A30003095F301E20FF31F8081823084F6820E3D
:100A4000931ED401CC92CE010196642F0E943804EB
:100A500089819A81F501028391838083138E1A9B89
:100A600003C020E030E008C0D50157962D913C919D
:100A7000589720713070286089B190E0F501058C9D
:100A800002C0959587950A94E2F780FD02C0226026
:100A90000CC089B190E0D5015E960C9002C095958E
:100AA00087950A94E2F780FF2460F501308F278B49
:100AB00069960FB6F894DEBF0FBECDBFCF91DF9120
:100AC0000F91FF90EF90DF90CF90BF90AF909F90ED
:100AD0008F907F906F905F904F90089560911A0172
:100AE00070911B018FE291E00E9418046091160141
:100AF0007091170183E291E00E9418046091120145
:100B00007091130189E291E00E9418048EE191E056
:100B10000E94940460911C0170911D018FE491E08A
:100B20000E941804609118017091190183E491E00A
:100B30000E941804609114017091150189E491E0FC
:100B40000E9418048EE391E00E9494041A9918C040
:100B50008091350184FD14C080915501909156011A
:100B600084FD0EC08F7E9093560180935501E091D5
:100B70005701F09158018789908D8061908F878B04
:100B800008950F938EE191E060E044E025E004E0F9
:100B90000E94DC008EE391E061E046E027E003E0A4
:100BA0000E94DC000F91089597FB092E07260AD0BA
:100BB00077FD04D043D006D000201AF470956195DB
:100BC0007F4F0895F6F7909581959F4F08952F9246
:100BD0003F924F925F926F927F928F929F92AF92CD
:100BE000BF92CF92DF92EF92FF920F931F93CF931A
:100BF000DF93CDB7DEB7CA1BDB0B0FB6F894DEBFB1
:100C00000FBECDBF09942A88398848885F846E84D6
:100C10007D848C849B84AA84B984C884DF80EE8020
:100C2000FD800C811B81AA81B981CE0FD11D0FB629
:100C3000F894DEBF0FBECDBFED010895AA1BBB1B0C
:100C400051E107C0AA1FBB1FA617B70710F0A61BCC
:100C5000B70B881F991F5A95A9F780959095BC01ED
:100C6000CD010895EE0FFF1F0590F491E02D09943A
:040C7000F894FFCF26
:100C7400000000002F030000000027030000000014
:020C8400370433
:00000001FF
