:100000000C9435000C942B020C9451020C945D005E
:100010000C945D000C945D000C945D000C945D00EC
:100020000C945D000C945D000C945D000C945D00DC
:100030000C945D000C945D000C945D000C945D00CC
:100040000C945D000C945D000C945D000C945D00BC
:100050000C945D000C947B000C945D000C945D008E
:100060000C945D000C945D00C90511241FBECFEFF8
:10007000D4E0DEBFCDBF11E0A0E0B1E0E4E8FCE0F9
:1000800002C005900D92A231B107D9F711E0A2E1AB
:10009000B1E001C01D92A936B107E1F710E0CAE650
:1000A000D0E004C02297FE010E943C06C836D1076A
:1000B000C9F70E945F000C9440060C9400000E9457
:1000C000FF030E947C05FDCFEAE7F0E080818760B6
:1000D0008083ACE7B0E08C9180648C9380818062F7
:1000E0008083808180688083808180648083808138
:1000F0008860808308951F920F920FB60F9211248B
:100100002F933F934F935F938F939F93AF93BF939F
:10011000EF93FF9340917C004770E0916801F0E01D
:100120002091780050917900EE0FFF1FE55AFE4FA5
:10013000952F80E030E0822B932B20813181820F3C
:10014000931F91838083409368014F5F4630F9F499
:10015000809167018F5F809367018430B9F41092BA
:100160006701ABE5B1E020E030E08D919C91119703
:10017000F901EE0FFF1FEE5EFE4F918380831D920B
:100180001D922F5F3F4F2630310579F740E0809177
:100190007C00887F482B40937C00FF91EF91BF91BA
:1001A000AF919F918F915F914F913F912F910F90C0
:1001B0000FBE0F901F901895DC011496ED91FC91E5
:1001C000159781E0878B0895472FDC011496ED91F8
:1001D000FC911597628170E084819B01280F311D8D
:1001E000C9012381332727FD3095821B930B242FD0
:1001F000332727FD3095820F931F0E94DC058483EF
:10020000438308950F93FC0131E03283148284E02C
:1002100091E096838583F287E18794878387F08BCB
:10022000E78780E191E0928B818BF68BE58B378BB2
:10023000608F418F228F038F158E148E9AB161E0EB
:1002400070E09B0102C0220F331F4A95E2F7A9011B
:10025000822F809589238AB98BB1482B4BB93AB14B
:10026000CB01028C02C0880F991F0A94E2F7282F55
:10027000209523232AB92BB1822B8BB984B19B0102
:10028000008C02C0220F331F0A94E2F7822B84B93C
:1002900084B1038C02C0660F771F0A94E2F7862BA5
:1002A00084B985B1862B85B985B1282B25B985B14F
:1002B0006095682365B90F910895FC01848D958D33
:1002C0008130910539F08230910581F1892B09F453
:1002D00059C0089594818281981708F0148224816E
:1002E00080819181A0E0B0E0022E04C0B695A79570
:1002F000979587950A94D2F72F5F248380FF60C07B
:1003000045B121E030E0C901008C02C0880F991F7F
:100310000A94E2F78095842385B985B1038C02C0E5
:10032000220F331F0A94E2F7822B2AC09481828124
:10033000981708F01482248180819181A0E0B0E0B8
:10034000022E04C0B695A795979587950A94D2F783
:100350002F5F248380FF34C045B121E030E0C90124
:10036000008C02C0880F991F0A94E2F7482745B90C
:1003700085B1038C02C0220F331F0A94E2F7822753
:1003800085B9089594818281981708F01482848138
:100390008F5F848345B181E090E09C01008C02C0B6
:1003A000220F331F0A94E2F7422B45B925B1038C83
:1003B00002C0880F991F0A94E2F78095822385B9BD
:1003C00008958091210160912001992787FD9095E2
:1003D00070E00E94DC058093220125B1E1E0F0E0AD
:1003E000CF010090360102C0880F991F0A94E2F7EE
:1003F000282B25B925B1CF010090390102C0880F03
:10040000991F0A94E2F78095822385B980913F0174
:1004100060913E01992787FD909570E00E94DC0570
:100420008093400125B1CF010090540102C0880F94
:10043000991F0A94E2F7282B25B985B1009057013E
:1004400002C0EE0FFF1F0A94E2F7E095E823E5B93A
:1004500010925A0108951F920F920FB60F92112415
:100460002F933F934F935F936F937F938F939F93BC
:10047000AF93BF93EF93FF930E94E1014A9BFECF9E
:10048000FF91EF91BF91AF919F918F917F916F916C
:100490005F914F913F912F910F900FBE0F901F9042
:1004A00018951F920F920FB60F9211242F933F931E
:1004B0004F935F936F937F938F939F93AF93BF936C
:1004C000EF93FF9383B199B198708470982B943017
:1004D00089F1953020F4992309F4EDC07FC198305B
:1004E00091F19C3009F07AC180913A0190913B01E1
:1004F0000297C0F445B181E090E09C010090360184
:1005000002C0220F331F0A94E2F7422B45B925B1EE
:100510000090390102C0880F991F0A94E2F7809574
:10052000822385B98091580190915901029708F072
:10053000C0C050C08EE191E00E945D018CE391E06B
:100540000E945D014AC190915A0180912001981743
:1005500008F056C080913A0190913B010297C0F497
:1005600045B181E090E09C010090360102C0220F6D
:10057000331F0A94E2F7422B45B925B100903901A7
:1005800002C0880F991F0A94E2F78095822385B9EB
:1005900083B190E00090360102C0959587950A944A
:1005A000E2F780FD17C045B121E030E0C9010090BD
:1005B000540102C0880F991F0A94E2F780958423A2
:1005C00085B985B10090570102C0220F331F0A94EC
:1005D000E2F755C045B181E090E09C0100905401E4
:1005E00002C0220F331F0A94E2F7422B45B925B10E
:1005F0000090570102C0880F991F0A94E2F756C075
:1006000080915801909159010297C0F445B181E061
:1006100090E09C010090540102C0220F331F0A9405
:10062000E2F7422B45B925B10090570102C0880F6F
:10063000991F0A94E2F78095822385B983B190E0EF
:100640000090540102C0959587950A94E2F780FDC9
:1006500018C045B121E030E0C9010090360102C068
:10066000880F991F0A94E2F78095842385B985B194
:100670000090390102C0220F331F0A94E2F7822B47
:1006800017C045B181E090E09C010090360102C0A6
:10069000220F331F0A94E2F7422B45B925B100908F
:1006A000390102C0880F991F0A94E2F780958223CE
:1006B00085B92D9893C080915A018F5F80935A011C
:1006C0005091200190E040913E01252F30E0240F11
:1006D000311D8217930714F010925A0180915A012C
:1006E0008517E0F58EE191E00E945D0183B190E015
:1006F0000090360102C0959587950A94E2F780FD37
:1007000017C045B121E030E0C9010090540102C09A
:10071000880F991F0A94E2F78095842385B985B1E3
:100720000090570102C0220F331F0A94E2F73BC02A
:1007300045B181E090E09C010090540102C0220F7D
:10074000331F0A94E2F7422B45B925B100905701B7
:1007500002C0880F991F0A94E2F73CC08CE391E035
:100760000E945D0183B190E00090540102C0959514
:1007700087950A94E2F780FD18C045B121E030E08A
:10078000C9010090360102C0880F991F0A94E2F750
:100790008095842385B985B10090390102C0220F6C
:1007A000331F0A94E2F7822B17C045B181E090E035
:1007B0009C010090360102C0220F331F0A94E2F719
:1007C000422B45B925B10090390102C0880F991F0D
:1007D0000A94E2F78095822385B92D9AFF91EF91D3
:1007E000BF91AF919F918F917F916F915F914F9149
:1007F0003F912F910F900FBE0F901F901895F89476
:1008000086E08093690083E08DBB53985B9A529891
:100810005A9AEAE7F0E0808187608083ACE7B0E035
:100820008C9180648C9380818062808380818068D9
:100830008083808180648083808188608083229827
:100840002A9A259A0E94E10178940895DC019B017F
:1008500012968D919C911397AB01481B590BCA01BD
:1008600057FF03C0909581959F4F8034910564F0A8
:1008700013963C932E931297ED91FC911197019052
:10088000F081E02DCD01099508950895A0E0B0E034
:10089000ECE4F4E00C94F805EC01F62E8FEFF8167A
:1008A000A1F48A8121E030E040E050E0082E04C04D
:1008B000220F331F441F551F0A94D2F720953095FD
:1008C000688179816223732323C0EEEFFE1679F0ED
:1008D000EE240F2D112707FD10950C0F1D1FBDE0F5
:1008E000CB2ED12CC00ED11EBF2CBA941BC08A8136
:1008F00021E030E040E050E0082E04C0220F331F1A
:10090000441F551F0A94D2F768817981622B732B9B
:10091000798368838F5F8A8310C0CE016B2D0E941C
:100920004604E394F6018081E816BCF3F801838164
:10093000882319F0FEEFFF0EB1CFCDB7DEB7E9E0A7
:100940000C9414064F925F926F927F928F929F92B7
:10095000AF92BF92CF92DF92EF92FF920F93DF930D
:10096000CF93CDB7DEB769970FB6F894DEBF0FBE51
:10097000CDBF5C01DC0157968C915797882309F411
:100980007CC017968D919C911897892F990F990B80
:1009900000E1081B202F30E01D968D919C911E9741
:1009A0009595879595958795FC012E9FC0012F9F62
:1009B000900D3E9F900D112460E074E00E94DC05D4
:1009C000802F861B1A8219821B82882319F480E0EB
:1009D00090E04EC0C02EC81A8C8340E024E0622E06
:1009E000712C6C0E7D1E9EE0892E912C8C0E9D1E0E
:1009F00085E0482E512C4C0E5D1EEC2CFF24E7FCAC
:100A0000F094E42FFF27E7FDF0956301CE0EDF1E83
:100A1000D6012C91332727FD3095C4018E0F9F1FDF
:100A2000998F888FC701B9010E94DC05A88DB98D07
:100A30006C93E40DF51DC701B9010E94DC058083AC
:100A4000F601C0804F5F242F332727FD3095F30137
:100A5000E20FF31F8081823084F6820E931ED40150
:100A6000CC92CE010196642F0E94460489819A811E
:100A7000F501028391838083178A89B190E0D501C3
:100A800059960C90599702C0959587950A94E2F76C
:100A900080FD07C081E090E05D969C938E935C970B
:100AA00015C089B190E0F501028C02C0959587953B
:100AB0000A94E2F780FD05C082E090E0958F848F74
:100AC00005C0D5015D961C921E925C9769960FB683
:100AD000F894DEBF0FBECDBFCF91DF910F91FF9095
:100AE000EF90DF90CF90BF90AF909F908F907F90CE
:100AF0006F905F904F900895EF92FF920F931F9326
:100B000060911A0170911B01FFE2EF2EF1E0FF2EC0
:100B1000C7010E94260406E111E0F801608171819D
:100B2000C7010C970E94260404501040F801608110
:100B30007181085F1F4FC70106970E942604C701F5
:100B400041970E94A20460911C0170911D01EDE487
:100B5000EE2EE1E0FE2EC7010E942604F801329736
:100B6000608171818F01C7010C970E942604045097
:100B70001040F80160817181C70106970E94260428
:100B8000C70141970E94A2041F910F91FF90EF901F
:100B900008950F938EE191E060E044E025E004E0E9
:100BA0000E9402018CE391E061E046E027E003E06F
:100BB0000E9402010F91089597FB092E07260AD083
:100BC00077FD04D043D006D000201AF470956195CB
:100BD0007F4F0895F6F7909581959F4F08952F9236
:100BE0003F924F925F926F927F928F929F92AF92BD
:100BF000BF92CF92DF92EF92FF920F931F93CF930A
:100C0000DF93CDB7DEB7CA1BDB0B0FB6F894DEBFA0
:100C10000FBECDBF09942A88398848885F846E84C6
:100C20007D848C849B84AA84B984C884DF80EE8010
:100C3000FD800C811B81AA81B981CE0FD11D0FB619
:100C4000F894DEBF0FBECDBFED010895AA1BBB1BFC
:100C500051E107C0AA1FBB1FA617B70710F0A61BBC
:100C6000B70B881F991F5A95A9F780959095BC01DD
:100C7000CD010895EE0FFF1F0590F491E02D09942A
:040C8000F894FFCF16
:100C840000000000DC00000000004504000000003B
:020C9400E4007A
:00000001FF
