:100000000C9435000C94E7000C942B010C945D00CB
:100010000C945D000C945D000C945D000C945D00EC
:100020000C945D000C945D000C945D000C945D00DC
:100030000C945D000C945D000C945D000C945D00CC
:100040000C945D000C945D000C945D000C945D00BC
:100050000C945D000C947B000C945D000C945D008E
:100060000C945D000C945D00D70311241FBECFEFEC
:10007000D4E0DEBFCDBF11E0A0E0B1E0E2ECF8E0FB
:1000800002C005900D92A431B107D9F711E0A4E1A7
:10009000B1E001C01D92AB33B107E1F710E0CAE651
:1000A000D0E004C02297FE010E945B04C836D1074D
:1000B000C9F70E945F000C945F040C9400000E943A
:1000C000DD010E94A802FDCFEAE7F0E080818760B1
:1000D0008083ACE7B0E08C9180648C9380818062F7
:1000E0008083808180688083808180648083808138
:1000F0008860808308951F920F920FB60F9211248B
:100100002F933F934F935F938F939F93EF93FF931F
:1001100040917C004770E0913A01F0E02091780036
:1001200050917900EE0FFF1FED5CFE4F952F80E0A0
:1001300030E0822B932B20813181820F931F91839A
:10014000808340933A014F5F433071F580913901CC
:100150008F5F80933901843031F51092390180919D
:100160003301909134019093150180931401109202
:1001700034011092330180913501909136019093B2
:10018000170180931601109236011092350180916B
:1001900037019091380190931901809318011092C2
:1001A00038011092370140E080917C00887F482B15
:1001B00040937C00FF91EF919F918F915F914F91C0
:1001C0003F912F910F900FBE0F901F9018951F9287
:1001D0000F920FB60F9211242F933F934F935F937B
:1001E0006F937F938F939F93AF93BF9380911F01E2
:1001F00060911E01992787FD909570E00E94FB0396
:100200008093200145B181E090E09C0100902301A2
:1002100002C0220F331F0A94E2F7422B45B925B1E1
:100220000090260102C0880F991F0A94E2F780957A
:10023000822385B94A9BFECFBF91AF919F918F9149
:100240007F916F915F914F913F912F910F900FBED2
:100250000F901F9018951F920F920FB60F921124B6
:100260002F933F934F938F939F93AF93BF934B994C
:1002700079C0809121019091220182309105C9F1CC
:10028000049709F06DC09091200180911E0198178C
:1002900010F0109220012091200180911A0190917C
:1002A0001B01A0911C01B0911D01022E04C0B69546
:1002B000A795979587950A94D2F72F5F20932001F1
:1002C00080FF4EC045B121E030E0C901009023011C
:1002D00002C0880F991F0A94E2F7482745B985B1F3
:1002E0000090260102C0220F331F0A94E2F78227F2
:1002F00036C09091200180911E01981710F0109245
:1003000020012091200180911A0190911B01A09160
:100310001C01B0911D01022E04C0B695A7959795BA
:1003200087950A94D2F72F5F2093200180FF18C091
:1003300045B121E030E0C9010090230102C0880FDF
:10034000991F0A94E2F78095842385B985B10090BE
:10035000260102C0220F331F0A94E2F7822B85B9CF
:100360002B9A1FC080912101909122010297C1F424
:1003700045B181E090E09C010090230102C0220F72
:10038000331F0A94E2F7422B45B925B100902601AC
:1003900002C0880F991F0A94E2F78095822385B9DD
:1003A0002B98BF91AF919F918F914F913F912F913A
:1003B0000F900FBE0F901F901895F89486E08093D1
:1003C000690083E08DBB53985B9A52985A9AEAE78A
:1003D000F0E0808187608083ACE7B0E08C9180643E
:1003E0008C9380818062808380818068808380811B
:1003F00080648083808188608083249A239A7894A3
:10040000089581E08093000108950F931F93072FB3
:1004100010911E01E12FF0E0872F992787FD90951D
:1004200020911F01332727FD3095821B930BBF01BD
:100430000E94FB03482F80912001242F332727FDA2
:100440003095B901680F711DE617F70724F4809104
:100450002001811B0CC080912001280F311D37FF26
:1004600004C080912001810F02C080912001840F7F
:100470008093200100931F011F910F91089508950B
:10048000A0E0B0E0E6E4F2E00C941704EC01F62EF4
:100490008FEFF816D1F46C8121E030E040E050E0BD
:1004A000062E04C0220F331F441F551F0A94D2F793
:1004B000209530954095509588819981AA81BB817E
:1004C00082239323A423B52327C0EEEFFE1679F0F1
:1004D000EE240F2D112707FD10950C0F1D1F9FE017
:1004E000C92ED12CC00ED11EBF2CBA9421C06C8154
:1004F00021E030E040E050E0062E04C0220F331F20
:10050000441F551F0A94D2F788819981AA81BB8123
:10051000822B932BA42BB52B88839983AA83BB832F
:100520006F5F6C8310C0CE016B2D0E944002E3947C
:10053000F6018081E816BCF3F8018581882319F063
:10054000FEEFFF0EA5CFCDB7DEB7E9E00C94330484
:100550006F927F928F929F92AF92BF92CF92DF92D3
:10056000EF92FF920F93DF93CF93CDB7DEB76B97E8
:100570000FB6F894DEBF0FBECDBF60911801709129
:10058000190180912D0190912E019B01281B390B9F
:10059000C90137FF03C0909581959F4F809774F0F4
:1005A00070932E0160932D01E0912B01F0912C01AD
:1005B0000190F081E02D8BE291E0099560911601A8
:1005C000709117018091290190912A01AB01481B7C
:1005D000590BCA0157FF03C0909581959F4F809793
:1005E00074F070932A0160932901E0912701F09142
:1005F00028010190F081E02D87E291E0099580913A
:100600000001882309F48AC080912D0190912E0168
:10061000880F892F881F990B00E2081B202F30E0DC
:100620008091290190912A019595879595958795B7
:10063000DC012A9FC0012B9F900D3A9F900D112441
:1006400060E074E00E94FB03802F861B19821A82EF
:100650001B821C821D82882329F480E090E0A0E0A8
:10066000B0E050C0C02EC81A8E8340E056E0852E00
:10067000912C8C0E9D1E30E1A32EB12CAC0EBD1E14
:1006800027E0622E712C6C0E7D1EEC2CFF24E7FC03
:10069000F094E42FFF27E7FDF0956401CE0EDF1EF6
:1006A000D6012C91332727FD3095C5018E0F9F1F52
:1006B0009B8F8A8FC701B9010E94FB03AA8DBB8D56
:1006C0006C93E60DF71DC701B9010E94FB038083FF
:1006D000F601C0804F5F242F332727FD3095F401AA
:1006E000E20FF31F8081823084F6A20EB31ED50183
:1006F000CC92CE010196642F0E94400289819A819A
:10070000AB81BC8100931E0180931A0190931B0161
:10071000A0931C01B0931D0110920001609114017F
:10072000709115018091310190913201FB01E81B1C
:10073000F90BCF01F7FF03C0909581959F4F8097EC
:1007400074F07093320160933101E0912F01F091C8
:1007500030010190F081E02D8FE291E0099589B19F
:1007600090E00090250102C0959587950A94E2F7E4
:1007700080FD03C084E090E002C082E090E09093AE
:100780002201809321016B960FB6F894DEBF0FBE55
:10079000CDBFCF91DF910F91FF90EF90DF90CF9081
:1007A000BF90AF909F908F907F906F900895109220
:1007B00020011092230187E08093240186E080933A
:1007C000250184E0809326015F9A5E9A209A2C9AF4
:1007D000289A2C9885E091E0909328018093270136
:1007E00090932C0180932B0181E191E09093300153
:1007F00080932F01089597FB092E07260AD077FDD5
:1008000004D043D006D000201AF4709561957F4F34
:100810000895F6F7909581959F4F08952F923F92F6
:100820004F925F926F927F928F929F92AF92BF9200
:10083000CF92DF92EF92FF920F931F93CF93DF93AC
:10084000CDB7DEB7CA1BDB0B0FB6F894DEBF0FBE09
:10085000CDBF09942A88398848885F846E847D8456
:100860008C849B84AA84B984C884DF80EE80FD8058
:100870000C811B81AA81B981CE0FD11D0FB6F894CE
:10088000DEBF0FBECDBFED010895AA1BBB1B51E11A
:1008900007C0AA1FBB1FA617B70710F0A61BB70BF0
:1008A000881F991F5A95A9F780959095BC01CD0195
:1008B0000895EE0FFF1F0590F491E02D0994F89430
:0208C000FFCF68
:1008C20001000000000102000000003F02000000E1
:0408D200000502001B
:00000001FF
