:100000000C9435000C940D010C9451010C945D007E
:100010000C945D000C945D000C945D000C945D00EC
:100020000C945D000C945D000C945D000C945D00DC
:100030000C945D000C945D000C945D000C945D00CC
:100040000C945D000C945D000C945D000C945D00BC
:100050000C945D000C947B000C945D000C945D008E
:100060000C945D000C945D00F60311241FBECFEFCD
:10007000D4E0DEBFCDBF11E0A0E0B1E0EEE2F9E0F8
:1000800002C005900D92A231B107D9F711E0A2E1AB
:10009000B1E001C01D92A034B107E1F710E0CAE65B
:1000A000D0E004C02297FE010E949104C836D10717
:1000B000C9F70E945F000C9495040C9400000E9404
:1000C0002C020E94B902FDCFEAE7F0E08081876050
:1000D0008083ACE7B0E08C9180648C9380818062F7
:1000E0008083808180688083808180648083808138
:1000F0008860808308951F920F920FB60F9211248B
:100100002F933F934F935F938F939F93EF93FF931F
:1001100040917C004770E0913F01F0E02091780031
:1001200050917900EE0FFF1FE85CFE4F952F80E0A5
:1001300030E0822B932B20813181820F931F91839A
:10014000808340933F014F5F433071F580913E01C2
:100150008F5F80933E01843031F510923E01809193
:1001600038019091390190931301809312011092FC
:1001700039011092380180913A0190913B0190939E
:1001800015018093140110923B0110923A01809165
:100190003C0190913D0190931701809316011092BC
:1001A0003D0110923C0140E080917C00887F482B0B
:1001B00040937C00FF91EF919F918F915F914F91C0
:1001C0003F912F910F900FBE0F901F901895DC015B
:1001D0001496ED91FC91159781E0818F0895472F3A
:1001E000DC011496ED91FC911597648170E0868195
:1001F0009B01280F311DC9012581332727FD30952B
:10020000821B930B242F332727FD3095820F931FDA
:100210000E9431048683458308951F920F920FB682
:100220000F9211242F933F934F935F936F937F937C
:100230008F939F93AF93BF9380911D0160911C0199
:10024000992787FD909570E00E94310480931E01EC
:1002500045B181E090E09C010090320102C0220F84
:10026000331F0A94E2F7422B45B925B100903501BE
:1002700002C0880F991F0A94E2F78095822385B9FE
:100280004A9BFECFBF91AF919F918F917F916F91CC
:100290005F914F913F912F910F900FBE0F901F9044
:1002A00018951F920F920FB60F9211242F933F9320
:1002B0004F938F939F93AF93BF934B99A2C080911D
:1002C0003601909137018130910539F082309105E6
:1002D000D9F1892B09F46EC092C090911E018091D2
:1002E0001C01981710F010921E0120911E018091A0
:1002F000180190911901A0911A01B0911B01022ED1
:1003000004C0B695A795979587950A94D2F72F5F65
:1003100020931E0180FF73C045B121E030E0C90188
:100320000090320102C0880F991F0A94E2F780956D
:10033000842385B985B10090350102C0220F331F97
:100340000A94E2F7822B5AC090911E0180911C0101
:10035000981710F010921E0120911E018091180133
:1003600090911901A0911A01B0911B01022E04C0B5
:10037000B695A795979587950A94D2F72F5F209306
:100380001E0180FF3CC045B121E030E0C901009072
:10039000320102C0880F991F0A94E2F7482745B935
:1003A00085B10090350102C0220F331F0A94E2F795
:1003B000822724C090911E0180911C01981710F093
:1003C00010921E0180911E018F5F80931E0145B126
:1003D00081E090E09C010090320102C0220F331FA7
:1003E0000A94E2F7422B45B925B10090350102C0CD
:1003F000880F991F0A94E2F78095822385B92B9A7A
:100400001FC080913601909137010297C0F445B129
:1004100081E090E09C010090320102C0220F331F66
:100420000A94E2F7422B45B925B10090350102C08C
:10043000880F991F0A94E2F78095822385B92B983B
:10044000BF91AF919F918F914F913F912F910F90BD
:100450000FBE0F901F901895F89486E08093690066
:1004600083E08DBB53985B9A52985A9AEAE7F0E082
:10047000808187608083ACE7B0E08C9180648C934E
:1004800080818062808380818068808380818064B5
:100490008083808188608083249A239A7894089549
:1004A0000895A0E0B0E0E7E5F2E00C944D04EC0123
:1004B000F62E8FEFF816D1F46C8121E030E040E0A9
:1004C00050E0062E04C0220F331F441F551F0A940C
:1004D000D2F7209530954095509588819981AA81D1
:1004E000BB8182239323A423B52327C0EEEFFE16FE
:1004F00079F0EE240F2D112707FD10950C0F1D1F0D
:100500009FE0C92ED12CC00ED11EBF2CBA9421C0A1
:100510006C8121E030E040E050E0062E04C0220F64
:10052000331F441F551F0A94D2F788819981AA81ED
:10053000BB81822B932BA42BB52B88839983AA8311
:10054000BB836F5F6C8310C0CE016B2D0E94510284
:10055000E394F6018081E816BCF3F80185818823D5
:1005600019F0FEEFFF0EA5CFCDB7DEB7E9E00C9492
:1005700069046F927F928F929F92AF92BF92CF92B7
:10058000DF92EF92FF920F93DF93CF93CDB7DEB759
:100590006B970FB6F894DEBF0FBECDBF609112010E
:1005A0007091130180912D0190912E019B01281BC8
:1005B000390BC90137FF03C0909581959F4F8097F4
:1005C00074F070932E0160932D01E0912B01F09156
:1005D0002C010190F081E02D8BE291E00995609172
:1005E0001601709117018091210190912201AB01B8
:1005F000481B590BCA0157FF03C0909581959F4F27
:10060000809774F07093220160932101E0911F01A3
:10061000F09120010190F081E02D8FE191E00995AA
:10062000609114017091150180912701909128012A
:10063000DB01A81BB90BCD01B7FF03C090958195D5
:100640009F4F809774F07093280160932701E09189
:100650002501F09126010190F081E02D85E291E0E5
:10066000099580913101882309F489C08091210185
:1006700090912201880F892F881F990B00E2081B97
:10068000202F30E080912701909128019595879542
:1006900095958795FC012E9FC0012F9F900D3E9F41
:1006A000900D112460E074E00E943104802F861BBD
:1006B00029F480E090E0A0E0B0E055C0C02EC81A58
:1006C0008E8340E056E0852E912C8C0E9D1E30E1ED
:1006D000A32EB12CAC0EBD1E27E0622E712C6C0E29
:1006E0007D1EEC2CFF24E7FCF094E42FFF27E7FDB0
:1006F000F0956401CE0EDF1ED6012C91332727FD25
:100700003095C5018E0F9F1F9B8F8A8FC701B9013E
:100710000E943104AA8DBB8D6C93E60DF71DC701B5
:10072000B9010E9431048083F601C0804F5F242FFD
:10073000332727FD3095F401E20FF31F80818230CB
:1007400084F6A20EB31ED501CC921D8219821A82A4
:100750001B821C82CE010196642F0E945102898166
:100760009A81AB81BC8100931C0180931801909306
:100770001901A0931A01B0931B011092310189B1A4
:100780002091340190E0022E02C0959587950A943D
:10079000E2F780FF03C081E090E00BC089B190E0F8
:1007A00002C0959587952A95E2F780FD07C082E003
:1007B00090E0909337018093360104C01092370186
:1007C000109236016B960FB6F894DEBF0FBECDBF08
:1007D000CF91DF910F91FF90EF90DF90CF90BF907E
:1007E000AF909F908F907F906F90089541E04093DD
:1007F0001C0110921E0184E091E0909320018093EF
:100800001F0128E131E030932401209323019093CC
:1008100026018093250130932A012093290180E14C
:1008200091E090932C0180932B0130933001209321
:100830002F0140933101109232011092330186E072
:100840008093340184E08093350110923701109237
:10085000360156985E9A209A249A2C9A289A2C98B7
:10086000089597FB092E07260AD077FD04D043D0C0
:1008700006D000201AF4709561957F4F0895F6F721
:10088000909581959F4F08952F923F924F925F923E
:100890006F927F928F929F92AF92BF92CF92DF9290
:1008A000EF92FF920F931F93CF93DF93CDB7DEB7F5
:1008B000CA1BDB0B0FB6F894DEBF0FBECDBF099489
:1008C0002A88398848885F846E847D848C849B84E0
:1008D000AA84B984C884DF80EE80FD800C811B81EE
:1008E000AA81B981CE0FD11D0FB6F894DEBF0FBE1D
:1008F000CDBFED010895AA1BBB1B51E107C0AA1F84
:10090000BB1FA617B70710F0A61BB70B881F991FB0
:100910005A95A9F780959095BC01CD010895EE0FE9
:0E092000FF1F0590F491E02D0994F894FFCF8D
:10092E0000000000E7000000000050020000000080
:02093E00EF00C8
:00000001FF
